:020000040000FA
:10000000580320207D0100008101000083010000D1
:1000100000000000000000000000000000000000E0
:10002000000000000000000000000000850100004A
:10003000000000000000000087010000511D0000CA
:100040008B010000E11300008B0100008B01000018
:100050008B0100008B0100008B0100008B01000070
:10006000000000008B0100008B0100000000000078
:10007000000000008B0100008B0100008B010000DC
:100080008B0100008B0100008B0100008B01000040
:100090008B0100008B010000000000000000000048
:1000A0008B0100008B010000000000000000000038
:1000B0008B010000000000008B0100008B0100009C
:1000C00000F002F800F04AF80CA030C808382418F4
:1000D0002D18671EA246AB4654465D46AC4201D180
:1000E00000F03CF87E460F3EB6460FCC0126334268
:1000F00000D0FB1A3343A246AB4618476C310000D0
:100100008C31000000000000103A02D378C878C19A
:10011000FAD8520701D330C830C101D504680C6049
:100120007047000000000000002300240025002686
:10013000103A01D378C1FBD8520700D330C100D5A3
:100140000B60704710B5642902D100F06BF810BD48
:10015000002010BD1FB51FBD10B510BD00F038FF49
:100160001146FFF7F7FF01F0D7FE00F050FF03B490
:10017000FFF7F2FF03BC00F0A5FF000006480047B0
:10018000FEE7FEE7FEE7FEE7FEE7FEE70348044979
:10019000024A044B70470000C100000058022020B2
:1001A00058032020580220200FB41CB5084B06AA83
:1001B0007B4469460090059800F0ABFE04460020A1
:1001C000694600F0B9FE20461CBC08BC04B01847C4
:1001D000850D000070B5044685690068C10601D52B
:1001E000302600E02026C00707D070BD6268304688
:1001F000A1689047206A401C20626D1EF6D570BD34
:1002000070B5044685690078C00707D170BD626883
:10021000A16820209047206A401C20626D1EF6D500
:1002200070BD0000F7B5002575291068009914A667
:1002300011D0C046C046002802DA404211A608E0AC
:10024000009909688A0701D50FA602E0490704D57D
:100250000EA6012501E0C046C046009F00242437B9
:1002600004E000F06EFE30313955641C0028F8D1EE
:100270002B4632462146009800F0EDFDFEBD000001
:10028000000000002D0000002B00000020000000F6
:10029000F3B50446002081B020622046E16888471B
:1002A000002872D0252802D06268A168ABE0594FBF
:1002B00000267F442046E16888472028054608DB61
:1002C000312D06D2781920380078002801D0064355
:1002D000F0E7B00701D5042086430020E06107461F
:1002E000A0612A2D0AD0284602F0EDFA002827D076
:1002F000B8000019303D0090856119E00298BA00FD
:10030000121902C8916102902046E1688847012FC6
:10031000054617D1E06900281FDA202086431CE03B
:1003200000980A2180694843009940193038886153
:100330002046E1688847054602F0C5FA0028EFD15B
:10034000012F0AD02E2D08D12046E16888470546A6
:10035000202006437F1C022FC3DBA069002803DA9C
:100360004042A06101200643F00701D010208643DF
:100370006C2D0BD0682D09D04C2D3CD06A2D38D077
:10038000742D38D07A2D36D016E040E0E1682F4643
:1003900020468847B842054609D16C2F29D0012054
:1003A0008002E168064320468847054604E06C2F3A
:1003B0001DD0FF2001300643002D28D028464138AB
:1003C000192803D80120C0020643203520462660A4
:1003D0002946029A1646FFF7B5FE002810D00128DC
:1003E0000BD0F61DF008C0000830029055E7402001
:1003F000E1E78020D5E70020D3E7361D02964CE7E1
:1004000062682846A1689047206A401C44E7206A39
:10041000FEBD0000D228000001E004C0091F04292D
:10042000FBD28B0701D50280801CC90700D0027067
:10043000704700290BD0C30702D00270401C491E30
:10044000022904D3830702D50280801C891EE3E7BA
:100450000022EEE70022DFE7002203098B4273D37C
:10046000030A8B4258D3030B8B423CD3030C8B42C1
:1004700021D312E003460B437FD4002243088B4272
:1004800074D303098B425FD3030A8B4244D3030B1B
:100490008B4228D3030C8B420DD30902FF2212BAE0
:1004A000030C8B4202D31212090265D0030B8B425C
:1004B00019D300E0090AC30B8B4201D3CB03C01A46
:1004C0005241830B8B4201D38B03C01A5241430B21
:1004D0008B4201D34B03C01A5241030B8B4201D311
:1004E0000B03C01A5241C30A8B4201D3CB02C01A7C
:1004F0005241830A8B4201D38B02C01A5241430AF4
:100500008B4201D34B02C01A5241030A8B4201D3E2
:100510000B02C01A5241CDD2C3098B4201D3CB0189
:10052000C01A524183098B4201D38B01C01A524138
:1005300043098B4201D34B01C01A524103098B423C
:1005400001D30B01C01A5241C3088B4201D3CB0027
:10055000C01A524183088B4201D38B00C01A52410A
:1005600043088B4201D34B00C01A5241411A00D2BA
:1005700001465241104670475DE0CA0F00D0494223
:10058000031000D3404253409C46002203098B4293
:100590002DD3030A8B4212D38901FC2212BA030A1B
:1005A0008B420CD3890192118B4208D3890192119D
:1005B0008B4204D389013AD0921100E08909C30922
:1005C0008B4201D3CB01C01A524183098B4201D324
:1005D0008B01C01A524143098B4201D34B01C01A0F
:1005E000524103098B4201D30B01C01A5241C30887
:1005F0008B4201D3CB00C01A524183088B4201D3F6
:100600008B00C01A5241D9D243088B4201D34B0010
:10061000C01A5241411A00D2014652411046634667
:100620005B1001D34042002B00D54942704763461E
:100630005B1000D3404201B50449002802DC491C8C
:10064000084000E00846C046C04602BDFFFFFF7FED
:100650007047704770470000F0B5F94D0C091E094E
:100660002C402E402F468BB0A7437DD0B543FCD005
:10067000002E7AD0002CFCD00D465D40ED0F2543B6
:10068000AC1BFF25AD0464190894C502440DC902D2
:100690002143500DDC0204430120C0070143044301
:1006A000D2020191200C110C00958C4601042346C6
:1006B0008B430A9161460904E24D8A430991010A7C
:1006C0007D4449198039097805464D4301266D1846
:1006D000F605751B6943C90C640B891C4C436418EF
:1006E000B5012C1B250C2E04B4434C434D43210C67
:1006F000691889090591009DE90701D00121C90701
:1007000004912C4601996708CD072F434C08059D9D
:10071000E10B4D432D0C29466646754302950D4667
:1007200045432E46029D7D1BB44100950D465D4319
:1007300001942C0C2F040D465543AE462D0C3D4321
:10074000029503947546049C2D04641B049406D200
:10075000029C039D641C002675410395029401AC24
:1007600070CC009F7D1B01E03EE162E1B4410904D1
:100770000095079101940599A4086143090C0C4662
:100780004443650BE7040C4666467443A646640B77
:100790003C43039502947446049DE4042C1B04948A
:1007A00006D2029C039D641C0026754103950294A9
:1007B00001AC70CC009F7D1BB44101940C465C439E
:1007C0000095650FE7000C465443A646640F3C4372
:1007D000039502947446049DE4002C1B049406D2F5
:1007E000029C039D641C002675410395029401AC94
:1007F00070CC009F7D1BB441AE09AF06049DC900BB
:10080000AD092F43049DA406AD060495079D34430E
:1008100069180791059DE10B4D432D0C294666464D
:10082000754302950D4645432E46029D7D1BB441FE
:1008300000950D465D4301942C0C2F040D46554345
:10084000AE462D0C3D43029503947546049C2D0441
:10085000641B049406D2029C039D641C002675410F
:100860000395029401AC70CC009F7D1BB4410194B0
:100870008C050694079C890A611800950791019CD4
:100880000599A4086143090C0D464543680BEF0424
:100890000D46644665436C0B3C43049FED047D1B91
:1008A000AC4602D20025641C6841009E019D371BA6
:1008B00085410846584301950C46460FC5005443F0
:1008C000600F28436546E4002C1B02D20025401C23
:1008D0006E41019D3F1AB5412846BD098006284357
:1008E0008446A009BF064E020699A406761807435F
:1008F000079D002068410A99079019430020099B31
:1009000000906046FF1913434041E20F64003A43F0
:10091000A4460446D71A8C41A04203D90120009076
:1009200020463A46C70F941840416246D20F2243F0
:10093000644664000494009CBE466400D71AA44632
:10094000044602978C417746002F01D1A04204D97A
:100950006046401C8446029A2046C40FA64694185E
:100960004041049A0546D20F224364466400D31ADC
:100970008D417146002901D1A84202D928461A4664
:10098000641C10430122002800D01643610200209D
:10099000079B891904465C410223002C02DB49189D
:1009A00013466441089DCE0A2D145D194B05670559
:1009B000E10A2C050D1908993E43C9076940002B2F
:1009C00008D0934006D30022761C5141002B01D160
:1009D000760876001C4A002D43DB154241D0AA431D
:1009E0003FD030460BB0F0BD06180D464D41174CB8
:1009F0007642AC411AD395181C465C41134A6D42AD
:100A0000A24113D3012252054C00D4420AD15C000A
:100A1000D4420BD04B4002D592021143E2E7490089
:100A20004908DFE75940C90FC90718E00020084905
:100A3000D8E7054801420DD10342F7D0F2E70000A4
:100A40000000FF07D52400000000F07F0000E0FF59
:100A50000000F87F114859400143C0124140002076
:100A6000C0E70123089A9B069A4205DC032252073D
:100A70008918C90FC907B5E7052252078918074A1F
:100A80001143D2125140ADE770B515461C460246DF
:100A90000B4628462146FFF7DFFD70BDFFFFFF7FB5
:100AA00030B50346CA02400D1043164D164C0A15C8
:100AB00002D02043002A06DBAA1A002A12DDD04009
:100AC000FF2A0BDC30BD5205520D01D14000400819
:100AD000AA1A07D4D0404042FF2A01DD002030BDD1
:100AE0000028FCDD4A00002B01D0012000E000209E
:100AF000101801225205D042F0D8C817C0436040F8
:100B000030BD00001E040000000000801F22030C06
:100B100002D10F22000402D0030E03D004E0002013
:100B2000014670470002083A030F01D10001121F6D
:100B3000830F01D18000921E002801DB4000521E6D
:100B4000120551184205C012411810467047C10FD6
:100B5000C90700D04042012292071143D6E7012184
:100B60008907D3E7F0B58B4C0F09254689B0BD4303
:100B70007BD01D092646AE43FAD00E465E40274084
:100B8000F60F3E43254071D024012142FBD0FF24C3
:100B9000AD19A4042D1B039501252D05DB02DB0AED
:100BA000C9022B43C90A29431E010901040F130F6F
:100BB000050121431701880B820391432D098C46BF
:100BC000A90B1E438A039543B30B9A0396433F092F
:100BD000BA0B9403A74302962E467E430497B6466B
:100BE0004E19D7190C460196544305977E43371B7F
:100BF0007646BF1B3601B646BE0B361900967646C2
:100C0000BC043719009C01D3641C00946400002FBD
:100C100001D001263443029E049F754366467E43FD
:100C20000496760034196E0034190094029C019EDB
:100C30001C196643751BAE46069465464519059C0E
:100C400005956C43594375460891691A0191049EB4
:100C500001465143A41B0491611A009C0791E106CF
:100C600005D061090122114302E072E06EE06109E2
:100C7000089D00272C0A2D066918049D7C412A0A2C
:100C80002D066918019D6241AC0DAD026D185441ED
:100C9000079A910D920255196141029A6446584390
:100CA0005443069B059A5A43121A131B9A0E9B0132
:100CB0005B187A41010B0005C3185141220A200636
:100CC00044195A419A4200D2491C012040028142F3
:100CD00003D315230226F64302E014230326F6432A
:100CE0002020C51AA9401746AF40DA400A432046E3
:100CF0000399D8400914731819055118039A3843F9
:100D0000D2075140AC4009D00122944006D30022C2
:100D1000401C5141002C01D1400840001E4A934222
:100D200012D3012203989206904207DB0520400768
:100D300009181A480143C012414004E0032040074B
:100D40000818C10FC907002009B0F0BD0020F10745
:100D5000FAE705180C464C4111486D42A04115D3E5
:100D600094181A465A410E48644290410ED301200D
:100D70004A004005824209D35A00824206D35940B4
:100D8000C90F084AC90700201143DDE700200649C2
:100D9000DAE700000000FF07FE070000FFFFFF7F0B
:100DA0000000E0FF0000F07F0000F87F10B5014672
:100DB0009E240002CA15A307002A02D01843002A65
:100DC00004DBA21A002A0CDDD04010BD1206120E60
:100DD00001D140004008A21A03D4D040404200286C
:100DE000F3DDFF2248001206904201D9002010BD19
:100DF000C817C043584010BD1F22030C02D10F2258
:100E000000041CD0030E01D10002083A030F01D1E7
:100E10000001121F830F01D18000921E002801DB08
:100E20004000521ED205511802125118192290404A
:100E300004D3491C002801D14908490008467047DD
:100E4000C10FC90700D04042012292071143D3E7E6
:100E500001218907D0E7FFB504460D4681B0243053
:100E600000902168880604D51022E0699143216032
:100E700000E00120A84201DD471B00E000270498A4
:100E8000A1697A191018081AA0612078C00602D446
:100E90002046FFF79FF9002608E003986268A168E2
:100EA000805D9047206A401C761C20620498864230
:100EB000F3DB2078C0060AD52046FFF78BF906E061
:100EC0006268A16830209047206A401C2062384642
:100ED0007F1E0028F4DC07E000986268A168405D8E
:100EE0009047206A401C206228466D1E0028F3DCD3
:100EF0002046FFF785F92078000602D5022005B0CC
:100F0000F0BD0120FBE7000001694A1C026108787E
:100F1000704700B58FB002910021059105490193FA
:100F200079440391114604906846FFF7B1F90FB078
:100F300000BD0000E5FFFFFF0A681070521C0A6048
:100F4000704701468008081A02091018020A101892
:100F5000020C1018C008820012185200891A01E011
:100F6000401C0A390A29FBD27047000010B5FF2344
:100F70001B0644009C421DD84C009C421AD80346D4
:100F8000124A0B4307D4401A02D3EFF3008010BD7E
:100F9000EFF3008010BD081A03D3EFF300809043F5
:100FA00005E0EFF3008001219043C907084380F377
:100FB000008810BD0D231B041A4204D011460020E6
:100FC00000F02DF810BD00F041F810BD00000090B9
:100FD000754600F043F8AE46050069465346C00822
:100FE000C000854618B020B5FFF7D0F860BCB64603
:100FF00000260027C0C5C0C5C0C5C0C5C0C5C0C586
:10100000C0C5C0C5403D490849008D46704710B570
:101010000446C046C0462046FFF7A9F810BDC802E6
:1010200012D54803400F002804D0C803C043012153
:1010300088407047EFF30080000100090321090791
:10104000084380F3008870470020704710B50248BD
:1010500000F008F810BD00000000C07F0048704795
:101060000800202010B50C461107090F092904D0EB
:101070000A290AD008290CD104E011460820FFF7FC
:10108000CEFF06E0510606D501E0510601D501204C
:10109000C007214610BDD10607D501010909CC08BA
:1010A0004907000E0006044309E0410F20024907EA
:1010B000000A0143200E00061D22D14101430846CB
:1010C000E7E7000001491820ABBEFEE7260002005A
:1010D0007047811E091F00BFFCD27047B0B51122B6
:1010E000120283580C4C1C400B894D881D438B7990
:1010F0002B430A4D1D4063198350CB798C881C43C8
:10110000097821435D239B001940801842689A4367
:1011100051184160B0BDC04680CCFFFF7F33000056
:1011200010B50122120383180C785C604978815055
:1011300010BD0000F0B5784A82183B4BC0184D79BD
:101140003A4C774B002D24D00E79202E04D0052563
:10115000ED01002E03D003E0354D002E00D188258F
:10116000566F26402E435667966F26402E4396674D
:10117000556B1D405563956B1D4095630025556566
:1011800095658F25ED4346682E40466086682E4063
:1011900086600E798D790968202E0BD0002E19D12A
:1011A000491E5160D76E274088210F43D7661746E6
:1011B000703719E0491E5160D16E21401C4F3943F0
:1011C000D166116F21403943116701214907194C3C
:1011D000174609E049085160D76E27400521C9012B
:1011E0000F43D766174670373B6823400B433B607D
:1011F000D16A4B4B1940D162116B19401163002128
:10120000D16411658F21C943D36F0B40D367036845
:101210000B4003603543BD2028401168064B0B404E
:10122000C018801C1060F0BD8418000024493E00E6
:1012300001040000FFFFFFCF4000FFCFB0B5364AEA
:1012400080184A6842600A78222A57D8930001A47D
:10125000E3589F46F3120000FD120000F312000055
:10126000FD120000FD120000FD120000FD12000042
:10127000FD120000FD120000FD120000FD12000032
:10128000FD120000FD120000FD120000FD12000022
:10129000FD120000E1120000FD120000E11200004A
:1012A000FD120000FD120000FD120000FD12000002
:1012B000FD120000FD120000FD120000FD120000F2
:1012C000FD120000FD120000FD120000FD120000E2
:1012D000FD120000E1120000FD120000E11200000A
:1012E00003231B0704689C4301235B07E318036087
:1012F00004E003231B0704689C4304600B69C3607C
:10130000CB68064C1C40C36A054D1D402B19C362B7
:10131000097A11430160B0BD04180000777702001C
:101320008888FDFF10B507239B04194092008018A0
:10133000024A84589C436118815010BD3018000047
:1013400010B5029CA400001911431943014A8150B1
:1013500010BDC0465018000092008018014A81500C
:101360007047C0461018000010B501221203831800
:101370000C789C604B7883508978014A815010BD6D
:101380000C110000B0B51122120283580124A343AE
:1013900083508B780C881C438B882343094C1C405A
:1013A0008358094D1D402B1983508B79CC791C43F0
:1013B000097A21437E231940801842689A435118C4
:1013C0004160B0BD18670000E798FDFF10B501222D
:1013D000120383180C789C604978815010BD00007E
:1013E000F0B581B06846002202704A4800680228C1
:1013F00000D08DE00127FE033D04D343464C103C52
:10140000216809041FD569460F70D448016831422C
:1014100002D0694602200870D0480068284203D0F4
:101420000098401C6946087068460078FD21084213
:10143000194600D03946D3480768C91901603649B2
:1014400008683043086020682842C44F1DD06846B1
:1014500002703868304202D0684601210170386855
:10146000284203D00098401C6946087068460078FE
:10147000FD2108421E4600D00126C24801687118AD
:1014800001602549086828430860206840061ED589
:101490006846012505703868400602D56846022175
:1014A00001703868000603D50098401C6946087032
:1014B00068460078FD21084200D01D46B248016808
:1014C00069180160144D2868402101432960206893
:1014D00000061DD5684602703868400602D5684689
:1014E000012101703868000603D50098401C694648
:1014F000087068460078FD21084200D10123A24807
:10150000016859180160044A106880210143116084
:1015100001B0F0BD3011404048300A4070B50123A1
:1015200018028F4908618F4A13631468E406FCD4DB
:10153000146A1468E406FCD4092515631468E406EB
:10154000FCD4146A1468E406FCD408600861022420
:1015500014631668F606FCD4166A1668F606FCD400
:10156000372616631668F606FCD4166A1668F60661
:10157000FCD408600861032616631668F606FCD4DE
:10158000166A1668F606FCD4E22616631668F60696
:10159000FCD4166A1668F606FCD4086008610426B6
:1015A00016631668F606FCD4166A1668F606FCD4AE
:1015B000172616631668F606FCD4166A1668F60631
:1015C000FCD408600861052616631668F606FCD48C
:1015D000166A1668F606FCD4002616631668F60628
:1015E000FCD4166A1668F606FCD408600861062664
:1015F00016631668F606FCD4166A1668F606FCD45E
:10160000502616631668F606FCD4166A1668F606A7
:10161000FCD408600861072616631668F606FCD439
:10162000166A1668F606FCD4142616631668F606C3
:10163000FCD4166A1668F606FCD408600861082611
:1016400016631668F606FCD4166A1668F606FCD40D
:10165000C02616631668F606FCD4166A1668F606E7
:10166000FCD40860086115631568ED06FCD4156AA2
:101670001568ED06FCD4122515631568ED06FCD43B
:10168000156A1568ED06FCD4086008610A25156323
:101690001568ED06FCD4156A1568ED06FCD41463D4
:1016A0001468E406FCD4146A1468E406FCD40860E8
:1016B00008610B2414631468E406FCD4146A1468EB
:1016C000E406FCD413631368DB06FCD4136A1368C6
:1016D000DB06FCD4086070BDF0B5694800210160EC
:1016E0001D4A11601D4C21680907FCD40121090223
:1016F0001B4A11611B4BA1251D631D68ED06FCD41F
:101700001D6A1D68ED06FCD4FF251D631E68F606E4
:10171000FCD41E6A1F68FF06FCD41160F6B2066096
:1017200026683607FCD41161A2241C631C68E406F9
:10173000FCD41C6A1C68E406FCD41D631C68E40627
:10174000FCD41C6A1D68ED06FCD41160210289B22C
:1017500002680A430260F0BD6C00202080330A401A
:1017600090120A40109146400148022101607047E2
:1017700000E100E0002802D00348006870470148FB
:1017800000687047A4002020A8002020F0B583B096
:101790002B4803782B4802782B4C2CA12046FEF7CF
:1017A00003FD2E4F009700252846294622462B464A
:1017B00000F058FF2A480068FFF74AFB02460095F0
:1017C0000195029710210A262846334600F0ECFEC8
:1017D000244803682448026824A12046FEF7E4FC5C
:1017E00000972021284622462B4600F03BFF244844
:1017F000026824A12046FEF7D7FC00973021284636
:1018000022462B4600F02EFF21480068FFF720FB00
:10181000024600950195029750212846334600F074
:10182000C3FE1C4802881CA12046FEF7BDFC0097A1
:101830006021284622462B4600F014FF03B0F0BD7D
:1018400094002020880020207400202054696D65B9
:101850003A20253032643A2530326400E0FF00003F
:101860008C002020980020209C0020204469737464
:101870003A253032646D25303264636D000000001B
:101880007000202050726F783A25303664000000D6
:101890009000202000002020416E676C653A2530C2
:1018A00036640000B0B52A4A8724D460012043047E
:1018B00028490B608523936000040860264B5C6315
:1018C0002648042505601C6002240C608224DC6428
:1018D000234C1C6583251D66DD6554631562D56147
:1018E000641C5462812494655C669C665C675465E4
:1018F0001C4D9D67DD675D659D6514605460DC6609
:101900001C675C64184A9A630A46403AC1231B026A
:1019100013600B60014630390B2292020A600146C7
:101920004039124A0A601249016012480168124A9D
:101930000A430260016903220A4302610F48016AF7
:101940000F4A11430162016811430160B0BDC046F6
:1019500090804240D0120A4008804240D0320A4073
:101960008200040081000C0081000E000050000C79
:10197000007C000C90330A4000F000C028300A4080
:10198000C080010070B582B0104C11492046FFF7AD
:10199000EBFC10492046FFF7CDFB002500952046C3
:1019A00029462A462B46FFF7CBFC204629462A46E5
:1019B000FFF7B8FC0126204631462A46FFF7CCFC4B
:1019C00005488660066002B070BDC0460080864053
:1019D000093200000C32000000918640B0B582B0A0
:1019E000DA4C10492046FFF7BFFC0F492046FFF7AD
:1019F000A1FB00250095204629462A462B46FFF7E5
:101A00009FFC204629462A46FFF78CFC07492046C2
:101A10002A46FFF7A1FC064801218160016002B05F
:101A2000B0BDC0461432000018320000DC050000D2
:101A30000011094010B50D4C0D492046FFF770FB11
:101A40000C492046FFF74AFB0B484168574A0A40B9
:101A50000F324260816812220A432D218A4382603C
:101A6000016801220A43026010BDC0460080464062
:101A70002032000022320000049146400C48002130
:101A800001600C48014608390A6803239A430A603A
:101A90000168012291430160110202688A430260D9
:101AA000FF20000204490A6882430A607047C0466A
:101AB00008030B4008010B4000E400E00848094916
:101AC0004160FF210906084A13688B4303218907F7
:101AD0005918116000218160072101607047C046DC
:101AE00010E000E0FF7C000020ED00E070B582B067
:101AF000C04C19492046FFF737FC18492046FFF72C
:101B000019FB00250095204629462A462B46FFF75B
:101B100017FC204629462A46FFF704FC20462946A2
:101B20002A46FFF719FC01260096204629462A4638
:101B30002B46FFF705FC204629463246FFF7F2FB0D
:101B4000204629463246FFF707FC054886600321F8
:101B5000016002B070BDC0462C320000303200007F
:101B60000031864010B50D4C0D492046FFF7D8FADC
:101B70000C492046FFF7B2FA0B4841680B4A0A406D
:101B8000511C4160816812220A432D218A438260E0
:101B9000016801220A43026010BDC04600A0464011
:101BA000383200003A32000004B1464000FCFFFF2A
:101BB00010B50C4C0C492046FFF7D6FB0B492046CC
:101BC000FFF73CFB0A480168012211430160094804
:101BD000016880230B437F218B430360064802602A
:101BE00010BDC046004008404432000048320000AA
:101BF0002850084010E400E00851084010B5124C8D
:101C000012492046FFF7E2FB11492046FFF7BAFBD5
:101C10000320C1030F4802688A43026001690E4A2B
:101C20000A40D0320261416915220A432A218A43BF
:101C30004261416801221140436893435918416051
:101C400001681143016010BD008010405C3200004B
:101C50005E320000009110400000FFFF80B500F0F0
:101C600029F8FFF71FFEFFF709FFFFF73FFFFFF718
:101C700089FEFFF7B3FEFFF79BFFFFF7BFFFFFF7FC
:101C800071FFFFF7D7FEFFF719FF9C2005490022DF
:101C90000A54B82004490A54242004490A54044927
:101CA0000A5480BDAC002020740120203002202086
:101CB0004C012020F0B581B01248134A426013480D
:101CC000426013484260134C6260134D6A60134EC9
:101CD0007260134F7A6013494A6013484260134A96
:101CE000084B1A60094B1A60094B1A6022602A607F
:101CF00032603A600A6002601020FFF7EAF901B032
:101D0000F0BDC04600080A40030000B100280A40A8
:101D100000288640008886400008094000480840A6
:101D20000088104000A84640008846400100002678
:101D300010B57D2421014843B42100F0B3FCA1007B
:101D4000411802480022FFF707FB10BD00000940C0
:101D5000B0B5124D2868401C2860A4480168491C91
:101D600001600F4C2078FFF7E3FF2868232813D386
:101D7000002028602088A94909680A4A914203D3B3
:101D80002D2805D82D2006E0872803D3872002E0E0
:101D9000401E00E0401C2080B0BDC04690002020C6
:101DA00000002020255E000010B50122140352031C
:101DB0008D4B002802D01C611A6001E01C601A6182
:101DC0000C480022FFF7C8FA10BDC04610B501222A
:101DD0009403D203064B002802D01C611A6001E074
:101DE0001C601A6103480122FFF7B6FA10BDC04615
:101DF00090120A4000208640F0B591B0002800D132
:101E000086E00F460446029200260846314600F05E
:101E10004FFD05463846FEF7C9FF3A460746002DF6
:101E200004D115462D202070641C0AE000211546BF
:101E3000104600F032FD002803D03020207011B091
:101E4000F0BD00943846FEF7FBFF0146284600F03F
:101E500033FE029C002C06D02E4D294600F0D4FD06
:101E6000641E2106F9D1FEF7A1FF019001210C4665
:101E70000A253846294600F037FC29464143791A9D
:101E8000F2B2920009AB9950611C761C0937122FEF
:101E90000746ECD8300611D0E0B2800009A9081836
:101EA000001F009C0168CA175140891A3031217007
:101EB000001F641C761E3106F4D100E0009C029ADB
:101EC000002A019824D0002822D02E21217003A9B5
:101ED0000E1F002701900292294600F005FC029A8D
:101EE00029464143019B591A7160361D7F1C521EC1
:101EF0001106EFD138060BD0601C3168CA1751406B
:101F0000891A30310170401C361F7F1E3906F4D10A
:101F100011B0F0BD0000204182B0FFF79FFE00F03D
:101F200083F8FFF721FCFFF7F9FA0120C0060190C2
:101F30003C4D0CE001982C4908602E8001240D21B5
:101F40002046FFF731FF0F212046FFF73FFFFFF745
:101F50001DFC264806683046254900F0A3FB2549AC
:101F600008707D20C100304600F09CFB3C21FEF74C
:101F700073FA2148017000263046FFF7FBFB074645
:101F80000120FFF7F7FBC019FEF7E1FD1B4A1C4BD0
:101F9000FEF7E8FD1B4A1C4BFEF7E4FD32461B4BE7
:101FA000FEF75AFBFEF77CFD0746194807606424DC
:101FB0003846214600F098FB164908604443381B18
:101FC00015490860FFF788FB1448006814498842E7
:101FD000B0D32888401C288080B20428AED3019852
:101FE00001490861AAE7C04690320A408C002020CF
:101FF00060EA00008800202094002020333333332F
:1020000033331B401F85EB51B81E09400040A040F0
:10201000A00020209C00202098002020700020207C
:102020003075000068002020F0B585B00126B402AC
:10203000FC4D2C61FC48FFF74CF82C60FB4C204613
:10204000FFF747F8B003019028610496F6022E616D
:10205000F74F112038633868C006FCD42E60204644
:10206000FFF737F82E61B12038633868C006FCD41A
:102070002E60049B3B633868C006FCD42C20386378
:102080003968C906FCD42D2139633A68D206FCD4DC
:102090002E61B2223A633A68D206FCD42E603B63CA
:1020A0003A68D206FCD438633A68D206FCD4396365
:1020B0003A68D206FCD42E61B3223A633A68D2065B
:1020C000FCD42E603B633A68D206FCD438633A688D
:1020D000D206FCD439633A68D206FCD43B633A6832
:1020E000D206FCD438633A68D206FCD43963396826
:1020F000C906FCD42E61B42139633968C906FCD401
:102100002E600721029139633968C906FCD42E611B
:10211000C02139633968C906FCD42E60A221396315
:102120003968C906FCD40221039139633968C906AC
:10213000FCD4842139633968C906FCD42E61C121DD
:1021400039633968C906FCD42E60C5223A63396800
:10215000C906FCD42E61C22139633968C906FCD492
:102160002E600A2139633968C906FCD4002139631D
:102170003B68DB06FCD42E61C3233B633B68DB0674
:10218000FCD42E608A233B633C68E406FCD42A24FA
:1021900000943C633C68E406FCD42E61C4243C6398
:1021A0003C68E406FCD42E603B633B68DB06FCD451
:1021B000EE233B633B68DB06FCD42E613A633A684E
:1021C000D206FCD42E600E223A633A68D206FCD4C2
:1021D0002E6136223A633A68D206FCD42E60A022E1
:1021E0003A633A68D206FCD42E61E0223A633A6838
:1021F000D206FCD42E600F243C633A68D206FCD48D
:102200001A223A633A68D206FCD43C633A68D20692
:10221000FCD418223A633A68D206FCD42F223A63DF
:102220003A68D206FCD428223A633A68D206FCD433
:1022300020223A633A68D206FCD422223A633A68F2
:10224000D206FCD41F223A633A68D206FCD41B2380
:102250003B633A68D206FCD423223A633A68D2063A
:10226000FCD437223A633A68D206FCD439633A6820
:10227000D206FCD4029A3A633A68D206FCD4039A96
:102280003A633A68D206FCD410223A633D68ED0600
:10229000FCD4C24D2E61E1253D633D68ED06FCD4C2
:1022A000BE4D2E603C633D68ED06FCD43B633B684D
:1022B000DB06FCD43C633B68DB06FCD417233B63A2
:1022C0003B68DB06FCD433233B63B44D3B68DB0641
:1022D000FCD438633868C006FCD4292038633B68D6
:1022E000DB06FCD42E233B633B68DB06FCD43023A7
:1022F0003B633C68E406FCD43B633B68DB06FCD4F0
:1023000039233B633B68DB06FCD43F233B633B68DC
:10231000DB06FCD439633B68DB06FCD4029B3B63E1
:102320003B68DB06FCD403233B633C68E406FCD437
:102330003A633A68D206FCD42E61009A3A63049C50
:102340003A68D206FCD42E6039633A68D206FCD4CF
:10235000039A3A633A68D206FCD439633A68D206E3
:10236000FCD482223A633A68D206FCD42E612B2236
:102370003A633A68D206FCD42E6039633A68D206D2
:10238000FCD43B633A68D206FCD439633A68D2067F
:10239000FCD483223A633A68D206FCD42E61F02240
:1023A0003A633A68D206FCD42E603C633A68D2069F
:1023B000FCD42E61F6223A633A68D206FCD42E6031
:1023C00039633968C906FCD42E613A21396339680A
:1023D000C906FCD42E6005253D633968C906FCD4C6
:1023E0006E490E6138633868C006FCD46B480660DD
:1023F000019E0660066100249F227F23204621461D
:1024000000F018F828033C633968C906FCD43C6323
:102410003968C906FCD4401E0104F4D15F48066047
:1024200005B0F0BD90320A4000E2040000983A0086
:1024300010B14640F0B581B000930124E402574B3F
:102440001C61574E2A2737633768FF06FCD41C608F
:10245000002737633568ED06FCD4401CC0B23063FA
:102460003068C006FCD437633068C006FCD4501C0A
:10247000C0B230633068C006FCD41C612B203063CE
:102480003068C006FCD41C6037633068C006FCD4DA
:10249000881CC0B230633068C006FCD43763306833
:1024A000C006FCD40098801CC0B230633068C006FF
:1024B000FCD41C612C2030633068C006FCD41C6046
:1024C00001B0F0BDF0B589B0059001208003334C18
:1024D00001902061D8B208901D0A0E98C4B2060A75
:1024E000203A069108460F3000232D4FC0B20390CA
:1024F00010012C4908180290049303E0079B5B1C11
:10250000082B45D0079305981818C0B206990246C3
:10251000039BFFF78FFF0298079A815C8018007A6F
:10252000049A04E0531C4908072A1A4614D2CB0720
:1025300009D13D633B68DB06FCD4089B3B633B68E9
:10254000DB06FCD4EEE73E633B68DB06FCD43C6371
:102550003B68DB06FCD4E5E7002104E04A1C4008A8
:1025600007291146CAD2C20709D13D633A68D2068B
:10257000FCD4089A3A633A68D206FCD4EEE73E638C
:102580003A68D206FCD43C633A68D206FCD4E5E74C
:1025900001980249086009B0F0BDC04690320A4077
:1025A00010B14640192C0000F0B58BB01F460592C3
:1025B0000D46064606A8002404740994089407945E
:1025C0000694109902915918891CFDF743FF092FB1
:1025D0000496039523D87F20C605002F08D0204DF0
:1025E0003046294600F010FA06467F1E3806F7D11D
:1025F000059D2846FEF7DAFB07463046FEF7D6FB78
:102600000146384600F070F8FEF71AFC314600F03B
:10261000FBF90146284600F04FFA014600E0059913
:1026200006AE3046029AFFF7E7FB3278002A039D98
:10263000049F12D012980590119E05980090E0001A
:10264000C019C0B2D2B229463346FFF73BFF641C23
:10265000E0B206AA125C002AEFD10BB0F0BDC04672
:1026600000002041F0B583B015461278002A17D03B
:102670001F46089C019400260290019C0094F400DF
:102680002018C0B2D2B22C460D463B46FFF71AFFC7
:10269000294625460298761CF2B2A25C002AECD1AB
:1026A00003B0F0BD43088B421AD3002203098B42CA
:1026B00079D3030A8B425ED3030B8B4242D3030CC4
:1026C0008B4227D30902FF2212BA030C8B4202D39A
:1026D0001212090203D0030B8B4233D31AE0D3E06A
:1026E000411A8041401C704703460B4371D4430894
:1026F0008B42F5D3002203098B4254D3030A8B4249
:1027000039D3030B8B421DD3030C8B4202D3944667
:102710006EE0090AC30B8B4201D3CB03C01A5241AE
:10272000830B8B4201D38B03C01A5241430B8B4264
:1027300001D34B03C01A5241030B8B4201D30B034D
:10274000C01A5241C30A8B4201D3CB02C01A524174
:10275000830A8B4201D38B02C01A5241430A8B4237
:1027600001D34B02C01A5241030A8B4201D30B0220
:10277000C01A5241CDD2C3098B4201D3CB01C01A3A
:10278000524183098B4201D38B01C01A5241430944
:102790008B4201D34B01C01A524103098B4201D332
:1027A0000B01C01A5241C3088B4201D3CB00C01A9F
:1027B000524183088B4201D38B00C01A5241430817
:1027C0008B4201D34B00C01A5241411A52411000B2
:1027D0007047CA0F00D04942031000D34042534013
:1027E00000229C4603098B422DD3030A8B4212D34D
:1027F0008901FC2212BA030A8B420CD3890192117F
:102800008B4208D3890192118B4204D3890137D0BE
:10281000921100E08909C3098B4201D3CB01C01A90
:10282000524183098B4201D38B01C01A52414309A3
:102830008B4201D34B01C01A524103098B4201D391
:102840000B01C01A5241C3088B4201D3CB00C01AFE
:10285000524183088B4201D38B00C01A5241D9D216
:1028600043088B4201D34B00C01A5241411A00D297
:1028700001465241104663465B1000D34042704708
:1028800063465B1000D3404201B50021004201D0F5
:10289000C9430846C046C04602BD10B500F060F806
:1028A000EFF30080400001D5012010BD002010BDD5
:1028B00010B500F07FF8EFF30080800001D5012013
:1028C00010BD002010BD30380A2801D20120704709
:1028D0000020704770B50125ED0704004C4020D45E
:1028E000441A01D2001B0919C60D4B00F2B2FF2A8F
:1028F00029D01B0E2CD000020C0228432C43D31AE3
:10290000DC40051910D2280A02D3401C6D0611D0F4
:10291000761EF6058019FF2A00DA70BDC00DC005CD
:1029200070BD694000F0CEF801200543C541521C3E
:10293000761CE8E764089C40C90161408900E7D142
:102940000124A043E4E71B0E440200D0034870BDFD
:10295000002AFCD1C00FC00770BD00BF0000C07FBF
:102960000123DB0502000A430DD4DA4203D49A4264
:1029700007D488427047D84214D4D94212D488422E
:10298000704780427047DA4203D59A42F9D58142B6
:1029900070475B004200DA4204D24A00DA4201D2B8
:1029A0008142704710B5024AFEF7E0FA10BD00BF41
:1029B000090012040123DB0502000A430DD4DA42A8
:1029C00003D49A4207D488427047D84214D4D942DB
:1029D00012D48842704780427047DA4203D59A4247
:1029E000F9D5814270475B004200DA4204D24A00C6
:1029F000DA4201D28142704710B5024AFEF7B6FAB8
:102A000010BD00BF0900130470B5420064414B00C3
:102A10005C41120E39D01B0E38D0FF2A3CD0FF2B60
:102A20003AD0D2187F3A40024902400A490A451872
:102A3000ED0106004E43000A090A48430104731AD7
:102A40004019190C4318990F04D05B08012149075C
:102A50005B1A521CD80904D3401CF50301D19D0612
:102A600007D0FF2A08D2D50506D0E4072043401935
:102A700070BD0125A843F4E7002A01DCE00770BD22
:102A80002402FF202043C00570BD1B0EFF2A03D087
:102A9000FF2B01D0E00770BDFF2636064500B5428A
:102AA00006D84D00B54203D8D218FF2A00D0E7E778
:102AB000004870BD0000C07F70B50125ED0704001F
:102AC0004C4022D4441A02D26C40001B0919C60D96
:102AD0004B00F2B2FF2A4BD01B0E50D000020C026A
:102AE000A8432C43D31ADC40051B05D5AD0019D3F0
:102AF0006D08761E521E37D0F605280A01D28019BD
:102B000070BD70416D0603D070BD6940FFF7E8FEEF
:102B10009C4009026140490001D0401E70BD012463
:102B2000A04370BD6D081DD001202B0C01D12D04D8
:102B300010302B0E01D12D0208302B0F01D12D01A9
:102B4000001DAB0F01D1AD00801CEB0F01D16D005A
:102B5000401C361A121A6D00680AF5054019012A40
:102B600002DB70BD002070BDC036300AC00770BDEA
:102B70001B0E440201D1FF2B00D1024870BD002A78
:102B8000F0D070BD0000C07F04000008000000000D
:102B900000000002000100001080807F7E7D7C7BB1
:102BA0007A7978777676757473727171706F6E6EEC
:102BB0006D6C6C6B6A6A6968686766666564646395
:102BC0006362616160605F5F5E5E5D5D5C5C5B5B1C
:102BD0005A5A59595858575756565555555454538B
:102BE0005352525251515050504F4F4F4E4E4D4DE7
:102BF0004D4C4C4C4B4B4B4A4A4A49494948484832
:102C00004747474746464645454544444444434371
:102C10004343424242424141410000000000000063
:102C2000000000000000000000000000F8000000AC
:102C300000000000333000000000100C06100C06ED
:102C400000000000000000000040C07840C0784054
:102C500000043F04043F040400007088FC083000B6
:102C600000001820FF211E0000F008F000E018000E
:102C70000000211C031E211E0000F00888700000C7
:102C8000001E2123241927211010160E0000000019
:102C9000000000000000000000000000E018040236
:102CA00000000000071820400000020418E00000A7
:102CB000000040201807000000404080F0804040A5
:102CC000000202010F01020200000000F0000000FB
:102CD000000101011F0101010000000000000000CF
:102CE0000080B07000000000000000000000000044
:102CF00000000101010101010100000000000000CD
:102D0000000030300000000000000000008060186B
:102D100004006018060100000000E010080810E040
:102D200000000F102020100F00001010F80000000D
:102D3000000020203F202000000070080808887054
:102D400000003028242221300000300888884830D4
:102D5000000018202020110E000000C02010F800F4
:102D60000000070424243F240000F808888808088D
:102D7000000019212020110E0000E01088881800A2
:102D800000000F112020110E0000380808C8380874
:102D9000000000003F0000000000708808088870F4
:102DA00000001C222121221C0000E010080810E075
:102DB000000000312222110F00000000C0C00000FE
:102DC0000000000030300000000000008000000023
:102DD000000000806000000000000080402010081B
:102DE00000000102040810200040404040404040E4
:102DF00000040404040404040000081020408000BF
:102E0000000020100804020100007048080808F0C3
:102E1000000000003036010000C030C828E810E093
:102E2000000718272423140B000000C038E000001E
:102E300000203C23020227382008F8888888700088
:102E400000203F202020110E00C03008080808385C
:102E500000071820202010080008F808080810E0D3
:102E600000203F202020100F0008F88888E8081074
:102E700000203F20202320180008F88888E8081048
:102E800000203F200003000000C030080808380080
:102E90000007182020221E020008F808000008F889
:102EA00008203F210101213F20000808F808080000
:102EB000000020203F2020000000000808F808083B
:102EC00000C08080807F00000008F888C0281808B3
:102ED00000203F20012638200008F80800000000EC
:102EE00000203F20202020300008F8F800F8F808E3
:102EF00000203F003F003F200008F830C00008F8E5
:102F000008203F200007183F00E01008080810E0E4
:102F1000000F10202020100F0008F808080808F003
:102F200000203F210101010000E01008080810E026
:102F3000000F18242438504F0008F88888888870BB
:102F400000203F2000030C3020007088080808385B
:102F5000000038202121221C00180808F808081851
:102F6000000000203F2000000008F808000008F8DA
:102F700008001F202020201F000878880000C83883
:102F800008000007380E010000F80800F80008F8F3
:102F900000033C0700073C0300081868808068189D
:102FA0000820302C03032C30200838C800C838080B
:102FB000000000203F2000000010080808C8380862
:102FC000002038262120201800000000FE02020206
:102FD000000000007F40404000000C30C0000000B6
:102FE00000000000010638C00000020202FE0000DE
:102FF00000004040407F0000000000040202020484
:1030000000000000000000000000000000000000C0
:1030100000808080808080808000020204000000A8
:1030200000000000000000000000008080808000A0
:10303000000019242222223F2008F800808000008E
:1030400000003F112020110E000000008080800051
:1030500000000E112020201100000000808088F860
:1030600000000E112020103F200000808080800092
:1030700000001F222222221300008080F08888880E
:10308000180020203F2020000000008080808080E9
:1030900000006B94949493600008F8008080800096
:1030A00000203F210000203F200080989800000071
:1030B000000020203F2020000000000080989800A1
:1030C0000000C08080807F000008F80000808080C1
:1030D00000203F24022D302000000808F8000000E6
:1030E000000020203F2020000080808080808080A1
:1030F00000203F20003F20003F8080008080800033
:1031000000203F210000203F2000008080808000C0
:1031100000001F202020201F0080800080800000F1
:103120000080FFA12020110E000000008080808020
:1031300000000E112020A0FF808080800080808011
:103140000020203F2120000100000080808080803E
:10315000000033242424241900008080E0808000B3
:10316000000000001F202000008080000000808000
:1031700000001F202020103F2080808000008080E1
:103180008000010E300806010080800080008080F1
:10319000800F300C030C300F000080800080808096
:1031A000000020312E0E31200080808000008080C1
:1031B0008080818E70180601000080808080808071
:1031C000000021302C2221300000000000807C0211
:1031D0000200000000003F404000000000FF00002F
:1031E0000000000000FF0000000002027C800000E0
:1031F000000040403F000000000006010102020400
:1032000004000000000000000008000004000000AE
:103210001000010008070300204E000020000100FC
:103220000800040000030000071000000807030066
:1032300064000000200001000800040000000000FD
:10324000071000000807270002000000E703000045
:103250000100000000000000000000000800000065
:10326000180000000030000088320000000020201C
:103270000800000008010000903200000800202033
:1032800050030000280100005A0000000000000068
:04000005000000C136
:00000001FF
